:100000000C9434000C9451000C9451000C941D017C
:100010000C9434010C9451000C9451000C94510038
:100020000C9451000C9451000C9451000C9451000C
:100030000C9451000C9451000C9451000C945100FC
:100040000C94C3000C9451000C9451000C9451007A
:100050000C9451000C9451000C9451000C945100DC
:100060000C9451000C94510011241FBECFEFD8E026
:10007000DEBFCDBF11E0A0E0B1E0E4E8F3E002C0F4
:1000800005900D92A032B107D9F721E0A0E2B1E0CE
:1000900001C01D92A632B207E1F70E9495000C94B0
:1000A000C0010C9400008FEF8AB91BB80895E82FA7
:1000B000F0E0EE0FFF1FE050FF4F80818BB90895F5
:1000C000F894E1E6F0E080E8808386E080830E9497
:1000D000530084B18F7D84B987B18C7F87B987B194
:1000E0008C6387B984B18E6184B9E8E6F0E08081E1
:1000F00081608083808182608083EBE6F0E0808194
:1001000080628083ECE6F0E08081836080831092DF
:10011000C1007894089514BC85B5856085BD86E8D6
:1001200086BD81E080936E0008950E9460000E9469
:100130008B0080E00E945700FFCF109225011092A3
:10014000240180912101813071F4109221011092DB
:10015000200188B18C6388B985B1817E85B981E041
:100160000E9457000895823069F410922101109284
:10017000200185B18E6185B988B1837C88B982E020
:100180000E94570008951F920F920FB60F921124EC
:100190002F933F934F935F936F937F938F939F938F
:1001A000AF93BF93EF93FF9386E886BD80912201C2
:1001B000882381F1809123018F5F80932301833015
:1001C000A1F028F4813049F0823059F025C0853003
:1001D000A1F078F08630A9F01FC085E00E9457009A
:1001E0001BC084E00E94570017C083E00E945700A4
:1001F00013C082E00E9457000FC081E00E945700A8
:100200000BC080E00E9457001092220181E0809391
:10021000200102C010922301FF91EF91BF91AF9195
:100220009F918F917F916F915F914F913F912F910E
:100230000F900FBE0F901F9018951F920F920FB640
:100240000F9211248F931D9909C081E080932201A0
:1002500085B1817E85B988B1837C88B98F910F90F3
:100260000FBE0F901F9018951F920F920FB60F920E
:1002700011242F933F934F935F936F937F938F93AB
:100280009F93AF93BF93EF93FF93309935C09091B5
:100290002001992329F0809125018F5F809325010A
:1002A00080912501843088F4913079F448B190E050
:1002B000019621E030E0B90102C0660F771F8A95F0
:1002C000E2F7CB01842B88B917C08430A9F49130B0
:1002D00099F448B190E0019621E030E0B90102C004
:1002E000660F771F8A95E2F7CB01842B88B981E0EE
:1002F000809321010E949D00319931C0909120018D
:10030000992329F0809124018F5F809324018091AB
:100310002401843078F4913069F445B121E030E073
:10032000B90102C0660F771F8A95E2F7CB01842BD3
:1003300085B915C0843099F4913089F445B121E034
:1003400030E0B90102C0660F771F8A95E2F7CB0152
:10035000842B85B982E0809321010E949D00FF914A
:10036000EF91BF91AF919F918F917F916F915F912D
:100370004F913F912F910F900FBE0F901F901895A6
:04038000F894FFCF1F
:100384007E0030006D00790033005B005F00700078
:100394007F007B0077001F004E003D004F004700A8
:00000001FF
