S00D00004C616230312E73726563A7
S11300000C9434000C9451000C9451000C94D500C1
S11300100C94E6000C9451000C9451000C94510083
S11300200C9451000C9451000C9451000C94510008
S11300300C9451000C9451000C9451000C945100F8
S11300400C9491000C9451000C9451000C945100A8
S11300500C9451000C9451000C9451000C945100D8
S11300600C9451000C94510011241FBECFEFD8E022
S1130070DEBFCDBF11E0A0E0B1E0E0E3F2E002C0FA
S113008005900D92A032B107D9F721E0A0E2B1E0CA
S113009001C01D92A432B207E1F70E9489000C94BA
S11300A016010C940000F894E1E6F0E080E8808307
S11300B086E0808384B18F7D84B987B18C7F87B9D2
S11300C08FEF8AB91BB887B18C6387B984B18E610D
S11300D084B9E8E6F0E08081816080838081826079
S11300E08083EBE6F0E0808180628083ECE6F0E0E0
S11300F08081836080831092C1007894089514BC39
S113010085B5856085BD86E886BD81E080936E00F7
S113011008950E9453000E947F00809100018BB9D2
S1130120FFCF1F920F920FB60F9211248F9386E880
S113013086BD80912001882369F1809121018F5F20
S1130140809321018330A1F028F4813049F082307A
S113015059F025C08530A1F078F08630A9F01FC091
S113016080910A018BB91BC0809108018BB917C01B
S1130170809106018BB913C0809104018BB90FC023
S1130180809102018BB90BC0809100018BB9109250
S1130190200105C010922101809100018BB98F913B
S11301A00F900FBE0F901F9018951F920F920FB6CD
S11301B00F9211248F931D9903C081E08093200135
S11301C08F910F900FBE0F901F9018951F920F9252
S11301D00FB60F9211242F938F939F93309917C0CA
S11301E080912301813130F01092230188B1837012
S11301F088B90DC08F5F8093230125B190E0880FEB
S1130200991F880F991F922F9370892B85B9319963
S113021005C0809122018F5F809322019F918F916D
S11302202F910F900FBE0F901F901895F894FFCF49
S11302307E0030006D00790033005B005F007000C9
S11302407F007B0077001F004E003D004F004700F9
S9030000FC
