S012000050726F796563746F30312E737265635C
S11300000C9434000C9451000C9451000C94510045
S11300100C9451000C9451000C9451000C94510018
S11300200C9451000C9451000C9451000C94510008
S11300300C9451000C9451000C9451000C945100F8
S11300400C9451000C9451000C9451000C945100E8
S11300500C9451000C9451000C9451000C945100D8
S11300600C9451000C94510011241FBECFEFD8E022
S1130070DEBFCDBF11E0A0E0B1E0E0E1FDE002C0F1
S113008005900D92A032B107D9F721E0A0E2B1E0CA
S113009001C01D92A635B207E1F70E941A030C9421
S11300A086060C9400000F931F93CF938B019C0141
S11300B0C42F87B18F7C87B9443079F018F441306C
S11300C031F023C0403191F04034C9F01EC0E9EB57
S11300D0F0E080818C7F80831EC0E9EBF0E08081BA
S11300E08D7F808380818160808315C0E9EBF0E09F
S11300F080818E7F80838081826080830CC0E9EB65
S1130100F0E080818360808306C0E9EBF0E08081C9
S11301108C7F8083C1E060E074E284EF90E0A90109
S113012098010E946406CA01B901605171098109EC
S113013091094C2F50E09A01220F331F032E000C1B
S1130140440B550B0E9464062093B800ECEBF0E0DE
S1130150808184608083CF911F910F91089584EAF8
S11301608093BC008091BC008823E4F79091B9008F
S1130170987F81E0983009F080E0089584EA8093C4
S1130180BC008091BC008823E4F79091B900987F6B
S113019081E0903109F080E0089584E98093BC0007
S11301A08091BC0084FDFCCF08958093BB0084E85B
S11301B08093BC008091BC008823E4F78091B9004F
S11301C0887F883121F0883219F481E0089581E034
S11301D00895FC01662321F084EC8093BC0003C0E5
S11301E084E88093BC009091BC009923E4F790913B
S11301F0B900987F662311F0903549F4611102C06B
S1130200983539F48091BB00808381E0089580E0C3
S1130210089580E00895CF93DF93D82FC62F0E94CE
S1130220AF0082E50E94D5008D2F80680E94D50022
S11302308C2F0E94D5000E94CD00DF91CF910895AC
S11302401F93CF93DF9300D0CDB7DEB7182F0E9452
S1130250AF0082E50E94D500812F80680E94D500FE
S11302600E94BE0083E50E94D50061E0CE010196A4
S11302700E94E90060E0CE0102960E94E9000E941B
S1130280CD008A8190E0982F88272981822B0F90B6
S11302900F90DF91CF911F91089561E080E00E945B
S11302A00B018FED9EE20197F1F700C0000063E0BF
S11302B080E00E940B0166ED81E00E940B019FEF3C
S11302C021EE84E0915020408040E1F700C000001E
S11302D0089584E10E942001089586E10E9420018E
S11302E0089588E10E94200108958AE10E94200176
S11302F008959BB193709BB99BB1282F30E0220FD6
S1130300331F220F331F292B2BB995B19C7F95B92D
S113031095B18295869586958370892B85B90895C4
S113032095B19B7F95B995B1977F95B90E94790155
S11303308AE18A95F1F700C085B1806185B99AE1B7
S11303409A95F1F700C085B18F7E85B98AE08A95C8
S1130350F1F700C087EC90E00197F1F700C00000CE
S113036008958AB18C6F8AB98BB183708BB984B1CB
S11303708F6184B985B1807E85B92FEF89EF90E0D4
S1130380215080409040E1F700C0000080E30E94CB
S113039090018FE19EE40197F1F700C0000080E333
S11303A00E9490018FE193E00197F1F700C00000F3
S11303B080E30E9490018FE193E00197F1F700C080
S11303C0000088E30E94900188E00E9490018CE084
S11303D00E94900186E00E94900181E00E949001B9
S11303E08FE39FE10197F1F700C00000089595B1F4
S11303F0946095B995B1977F95B90E9479018AE186
S11304008A95F1F700C085B1806185B99AE19A9522
S1130410F1F700C085B18F7E85B98AE08A95F1F73E
S113042000C087EC90E00197F1F700C00000089548
S11304300F931F93CF93DF938C01C0E0D0E003C0F0
S11304400E94F7012196F801EC0FFD1F80818111B4
S1130450F7CFDF91CF911F910F910895613021F46F
S113046081580E9490010895623019F481540E94C9
S1130470900108950E94B10108954F925F926F9286
S11304807F928F929F92AF92BF92CF92DF92EF9220
S1130490FF920F931F93CF93DF9361E081E00E945B
S11304A02E0281E091E00E94180262E081E00E9445
S11304B02E024090270150902801609029017090ED
S11304C02A010F2EF4E68F2E912CA12CB12CF02DA5
S11304D0C301B201A50194010E946406C22F2093B6
S11304E03B0130933C0140933D0150933E010F2E5C
S11304F0FAE0CF2ED12CE12CF12CF02DA70196019E
S11305000E94640620932301309324014093250123
S113051050932601C301B201A70196010E9464060B
S113052060934E0170934F01809350019093510159
S113053080E38C0F0E94F70103E211E0F80180814F
S1130540805D0E94F701CEE4D1E08881805D0E9445
S1130550F70180E191E00E94180262E087E00E94C6
S11305602E0240903F0150904001609041017090F4
S11305704201C301B201A50194010E946406B22E96
S113058020933B0130933C0140933D0150933E0145
S1130590A70196010E94640620932301309324014D
S11305A04093250150932601C301B201A70196018E
S11305B00E94640660934E0170934F018093500132
S11305C09093510180E38B0D0E94F701F801808123
S11305D0805D0E94F7018881805D0E94F70162E0DE
S11305E08CE00E942E0280914D01813029F484E137
S11305F091E00E9418020DC0823029F488E191E054
S11306000E94180206C0833021F48CE191E00E941C
S11306101802DF91CF911F910F91FF90EF90DF901F
S1130620CF90BF90AF909F908F907F906F905F908E
S11306304F9008958F929F92AF92BF92CF92DF9284
S1130640EF92FF920F931F93CF93DF930E943A028E
S113065084B1806284B985B18F7D85B987B18460A6
S113066087B985B18F7D85B941E060EA76E881E09C
S113067090E00E9453000E944D0185B1806285B9CB
S113068080910001823009F46EC0833009F4A5C062
S1130690813009F0D2C10E94AF00882309F4D9C186
S11306A080E60E94D500811103C00E94CD00D1C113
S11306B082E50E94D5000E94BE00811103C00E9401
S11306C0CD00C7C181E60E94D500811103C00E94FC
S11306D0CD00BFC160E082E291E00E94E9000E9487
S11306E0CD0085B18F7D85B98091220190E0A0E095
S11306F0B0E08093270190932801A0932901B0933F
S11307002A018B309105A105B10598F40E94AF0030
S1130710882309F49EC180E60E94D500811103C09C
S11307200E94CD0096C18CE40E94D5000E94CD00A9
S113073016C00B97A105B10590F00E94AF00882365
S113074009F487C180E60E94D500811103C00E948C
S1130750CD007FC183E50E94D5000E94CD0082E0D8
S1130760809300016AC10E94AF00882309F471C11B
S113077080E80E94D500811103C00E94CD0069C1A8
S113078082E50E94D5000E94BE00811103C00E9430
S1130790CD005FC181E80E94D500811103C00E9491
S11307A0CD0057C160E081E291E00E94E9000E941F
S11307B0CD0085B18F7D85B98091210190E0A0E0C5
S11307C0B0E080933F0190934001A0934101B09326
S11307D0420183E08093000130C10E94690190933B
S11307E04801809347010E946D0190933A018093E0
S11307F039010E94710190933701809336010E9460
S11308007501EC0190932C0180932B010091470119
S1130810109148010115110509F445C06091390191
S113082070913A0180E090E00E94AD056B017C017B
S1130830B80180E090E00E94AD054B015C019B0192
S1130840AC01C701B6010E943B056093320170936D
S11308503301809334019093350160913601709196
S1130860370180E090E00E94AD05A50194010E944B
S11308703B05609343017093440180934501909339
S11308804601BE0180E090E00E94AD05A5019401FF
S11308900E943B0560932D0170932E0180932F01DC
S11308A09093300118C010923201109233011092CB
S11308B034011092350110924301109244011092B8
S11308C045011092460110922D0110922E011092B2
S11308D02F011092300160913201709133018091A7
S11308E034019091350126E636E646EE5EE30E9439
S11308F05F06181634F560914301709144018091AC
S11309004501909146012AE939E949E95EE30E94EB
S113091036058823B4F460912D0170912E018091E5
S11309202F01909130012AE939E949E95EE30E94F7
S11309303605882334F488B1846088B981E08093D3
S11309404D01609143017091440180914501909162
S1130950460126E636E646EE5EE30E945F0618167A
S113096034F560913201709133018091340190919A
S1130970350123E333E343EB5EE30E94360588232A
S1130980B4F460912D0170912E0180912F0190910A
S1130990300123E333E343EB5EE30E94360588230F
S11309A034F488B1846088B982E080934D01609109
S11309B02D0170912E0180912F019091300126E636
S11309C036E646EE5EE30E945F06181634F5609143
S11309D032017091330180913401909135012AE9FB
S11309E039E949E95EE30E9436058823B4F460914D
S11309F0430170914401809145019091460123E3A4
S1130A0033E343EB5EE30E943605882334F488B174
S1130A108B7F88B983E080934D018091200190E021
S1130A20A0E0B0E08093490190934A01A0934B0168
S1130A30B0934C0181E0809300010E943D022FEFAE
S1130A4080E792E0215080409040E1F700C0000030
S1130A5014CEDF91CF911F910F91FF90EF90DF9013
S1130A60CF90BF90AF909F908F9008950E94EA0519
S1130A7008F481E008950E944F050C9425060E9415
S1130A801E0658F00E94170640F029F45F3F29F033
S1130A900C940E0651110C9459060C9414060E94E1
S1130AA0360668F39923B1F3552391F3951B550B3F
S1130AB0BB27AA2762177307840738F09F5F5F4F2D
S1130AC0220F331F441FAA1FA9F335D00E2E3AF06C
S1130AD0E0E832D091505040E695001CCAF72BD084
S1130AE0FE2F29D0660F771F881FBB1F26173707D5
S1130AF04807AB07B0E809F0BB0B802DBF01FF2707
S1130B0093585F4F3AF09E3F510578F00C940E06CF
S1130B100C9459065F3FE4F3983ED4F38695779599
S1130B206795B795F7959F5FC9F7880F911D9695BF
S1130B30879597F90895E1E0660F771F881FBB1F1B
S1130B40621773078407BA0720F0621B730B840BC8
S1130B50BA0BEE1F88F7E0950895E89409C097FB57
S1130B603EF490958095709561957F4F8F4F9F4F80
S1130B709923A9F0F92F96E9BB279395F6958795C4
S1130B8077956795B795F111F8CFFAF4BB0F11F487
S1130B9060FF1BC06F5F7F4F8F4F9F4F16C088232E
S1130BA011F096E911C0772321F09EE8872F762F64
S1130BB005C0662371F096E8862F70E060E02AF0A5
S1130BC09A95660F771F881FDAF7880F9695879591
S1130BD097F90895990F0008550FAA0BE0E8FEEF66
S1130BE016161706E807F907C0F012161306E407ED
S1130BF0F50798F0621B730B840B950B39F40A26E6
S1130C0061F0232B242B252B21F408950A2609F4C3
S1130C10A140A6958FEF811D811D089597F99F67C7
S1130C2080E870E060E008959FEF80EC0895002470
S1130C300A941616170618060906089500240A943D
S1130C4012161306140605060895092E0394000CC3
S1130C5011F4882352F0BB0F40F4BF2B11F460FF52
S1130C6004C06F5F7F4F8F4F9F4F089557FD90587B
S1130C70440F551F59F05F3F71F04795880F97FB5C
S1130C80991F61F09F3F79F0879508951216130616
S1130C901406551FF2CF4695F1DF08C01616170645
S1130CA01806991FF1CF869571056105089408957A
S1130CB0E894BB2766277727CB0197F908950E940C
S1130CC0EA0508F48FEF0895A1E21A2EAA1BBB1BB4
S1130CD0FD010DC0AA1FBB1FEE1FFF1FA217B30704
S1130CE0E407F50720F0A21BB30BE40BF50B661F1A
S1130CF0771F881F991F1A9469F7609570958095DE
S1130D0090959B01AC01BD01CF010895F894FFCFEC
S1130D100153313A20202053323A202053333A00F1
S1130D20636D20007265640067726500626C750013
S9030000FC
