:100000000C9434000C9451000C9451000C94510049
:100010000C9451000C9451000C9451000C9451001C
:100020000C9451000C9451000C9451000C9451000C
:100030000C9451000C9451000C9451000C945100FC
:100040000C9451000C9451000C9451000C945100EC
:100050000C9451000C9451000C9451000C945100DC
:100060000C9440020C94510011241FBECFEFD8E035
:10007000DEBFCDBF11E0A0E0B1E0E0E7F8E002C0F4
:1000800005900D92A630B107D9F721E0A6E0B1E0C6
:1000900001C01D92A131B207E1F70E9415010C9435
:1000A00036040C9400008AB180688AB98AB18F7BCB
:1000B0008AB98BB18F778BB9089589B1829586956E
:1000C0008695837091E08927817008950E945D0074
:1000D0008823E1F390E040E050E0BA0119C08BB111
:1000E00080688BB985E08A95F1F70000440F551FB1
:1000F000661F771F4E9B04C04F5F5F4F6F4F7F4F50
:100100008BB18F778BB985E08A95F1F700009F5FFF
:10011000983128F38BB180688BB985E08A95F1F727
:1001200000008BB18F778BB967FD7F6FCB01BA0170
:1001300008952F923F924F925F926F927F928F928B
:100140009F92AF92BF92CF92DF92EF92FF920F9366
:100150001F93CF93DF93282E512C612C712C812C6F
:10016000912CD0E0C0E0312C412C23C00E946600CD
:100170006B017C01FF0CCC08DC2C7601262F372F7D
:10018000482F592F6C2D7C2D8C2D9C2DA62CB72CF7
:10019000C82CD92CED2EFC2E032D142D0E942D04DD
:1001A000622E732E842E952ED62FC72F382E492ED1
:1001B00053945214D8F2A22CB12CC12CD12CE12C86
:1001C000F12C00E010E0262D372D482D592D6D2FF4
:1001D0007C2F832D942D0E945803622F732F842F20
:1001E000952FDF91CF911F910F91FF90EF90DF90AE
:1001F000CF90BF90AF909F908F907F906F905F90C7
:100200004F903F902F90089597B19F7C97B9880F9A
:100210008093BA0085E48093BC0008958AB18C6312
:100220008AB98BB1837C8BB908950E940E010E941C
:1002300053002FEF83EC99E0215080409040E1F78C
:1002400000C0000068E070E080E00E949D0280E154
:100250000E94990060930D0170930E0180930F012D
:100260009093100180E40E94040178940E945D0044
:10027000882321F10E94660000910D0110910E016A
:1002800020910F0130911001601B710B820B930BB9
:100290003AF490958095709561957F4F8F4F9F4F61
:1002A000209101013091020140910301509104011C
:1002B0000E94280330930901209308018FE39FE1F6
:1002C0000197F1F700C0000080910A01823439F4EF
:1002D0008AEA90E00E94F40210920A0108C089356F
:1002E00031F48EE690E00E94F40210920A018091AF
:1002F0000A01843509F05AC08093060157C08091E5
:1003000007018F5F80930701843621F41092070163
:1003100010920601809100018230C9F018F48130FA
:1003200031F044C0833019F1843089F13FC08BB182
:10033000837C8BB98BB184608BB982E080930001A0
:100340008FED9EE20197F1F700C000002FC08BB146
:10035000837C8BB98BB188608BB983E0809300017B
:100360008FED9EE20197F1F700C000001FC08BB136
:10037000837C8BB98BB180618BB984E08093000161
:100380008FED9EE20197F1F700C000000FC08BB126
:10039000837C8BB98BB180628BB981E08093000143
:1003A0008FED9EE20197F1F700C0000080910601F9
:1003B000843509F4A4CF80910A01813409F05AC030
:1003C0008093060157C0809107018F5F80930701DA
:1003D000843621F4109207011092060180910001E9
:1003E0008230C9F018F4813031F044C0833019F103
:1003F000843089F13FC08BB1837C8BB98BB1806233
:100400008BB982E0809300018FED9EE20197F1F7B6
:1004100000C000002FC08BB1837C8BB98BB1806191
:100420008BB983E0809300018FED9EE20197F1F795
:1004300000C000001FC08BB1837C8BB98BB188607A
:100440008BB984E0809300018FED9EE20197F1F774
:1004500000C000000FC08BB1837C8BB98BB184606E
:100460008BB981E0809300018FED9EE20197F1F757
:1004700000C0000080910601813409F4A4CFF6CEBB
:100480001F920F920FB60F9211248F939F93EF93A9
:10049000FF938091B9008C7F80930C01803AE9F141
:1004A00058F48037A1F018F4803689F03AC08038CB
:1004B00091F0803981F035C0883BF9F018F4883A22
:1004C00091F02FC0803C19F1883C09F12AC085ECDD
:1004D0008093BC0029C08091BB0080930A0185EC09
:1004E0008093BC0021C080910801909109019093F4
:1004F000BB0085EC8093BC0017C0809108019091EF
:1005000009018093BB0085EC8093BC000DC0ECEB2F
:10051000F0E0108285E4808307C085EC8093BC0006
:1005200003C085EC8093BC00FF91EF919F918F9168
:100530000F900FBE0F901F9018952FE33CE930935A
:1005400087002093860094B1926094B9E0E8F0E0CF
:1005500090819F739083813021F48081806C8083AF
:1005600005C0E0E8F0E0808180688083E0E8F0E0AA
:10057000808182608083E1E8F0E08081886180830F
:100580008081887F808360347105E1F038F46130C8
:10059000710561F06830710579F00895611581E0A9
:1005A0007807B1F061157440C9F00895E1E8F0E012
:1005B0008081816080830895E1E8F0E0808182603D
:1005C00080830895E1E8F0E080818360808308956E
:1005D000E1E8F0E08081846080830895E1E8F0E064
:1005E00080818560808308959C01ACEABDE00E9413
:1005F000470324EB30E040E050E00E940603245221
:100600003A4F30938900209388000895A1E21A2E72
:10061000AA1BBB1BFD010DC0AA1FBB1FEE1FFF1FA6
:10062000A217B307E407F50720F0A21BB30BE40BF6
:10063000F50B661F771F881F991F1A9469F760953D
:100640007095809590959B01AC01BD01CF010895F7
:10065000052E97FB1EF400940E943F0357FD07D020
:100660000E94060307FC03D04EF40C943F03509500
:100670004095309521953F4F4F4F5F4F089590958E
:100680008095709561957F4F8F4F9F4F0895A29FE2
:10069000B001B39FC001A39F700D811D1124911D56
:1006A000B29F700D811D1124911D0895689401C0A1
:1006B000E894F92FF12B12F00C948A03A0E0B0E03B
:1006C000E4E6F3E00C94FC03092E059422F40E9466
:1006D000E603112392F4F0E80F26FFEFE094F09484
:1006E00000951095B094C094D094A194BF0ACF0AFD
:1006F000DF0AEF0AFF0A0F0B1F0B0E94950307FC8E
:100700000E94E603CDB7DEB7ECE00C9418046894C1
:1007100001C0E8948F929F92CF93DF930E9495033C
:10072000DF91CF919F908F90089588249924F401B0
:10073000E401B0E49F93AA279A158B049C04ED056D
:10074000FE05CF05D007A10798F4AD2FDC2FCF2FE2
:10075000FE2FE92D982C892E982F872F762F652F25
:10076000542F432F322F2227B85031F7BF9127C083
:100770001B2EBF91BB27220F331F441F551F661F1F
:10078000771F881F991F881C991CEE1FFF1FCC1F05
:10079000DD1FAA1FBB1F8A149B04EC05FD05CE05B7
:1007A000DF05A007B10748F08A189B08EC09FD098E
:1007B000CE09DF09A00BB10B21601A94E1F62EF4EB
:1007C0009401AF01BE01CD01000C089560957095B4
:1007D0008095909530954095509521953F4F4F4F7E
:1007E0005F4F6F4F7F4F8F4F9F4F08952F923F92D4
:1007F0004F925F926F927F928F929F92AF92BF9231
:10080000CF92DF92EF92FF920F931F93CF93DF93DC
:10081000CDB7DEB7CA1BDB0B0FB6F894DEBF0FBE39
:10082000CDBF09942A88398848885F846E847D8486
:100830008C849B84AA84B984C884DF80EE80FD8088
:100840000C811B81AA81B981CE0FD11D0FB6F894FE
:10085000DEBF0FBECDBFED0108952A0D3B1D4C1D1F
:100860005D1D6E1D7F1D801F911F0895F894FFCFA1
:06087000018A01000000F6
:00000001FF
