S00D00004C616230322E73726563A6
S11300000C9434000C9451000C9451000C94510045
S11300100C9451000C9451000C9451000C94510018
S11300200C9451000C9451000C9451000C94510008
S11300300C9451000C9451000C9451000C945100F8
S11300400C9451000C9451000C94AB030C9451008B
S11300500C9451000C9403040C9451000C94510022
S11300600C9451000C94510011241FBECFEFD8E022
S1130070DEBFCDBF12E0A0E0B1E0E4E1FAE002C0EF
S113008005900D92AA30B107D9F722E0AAE0B2E0B8
S113009001C01D92AB33B207E1F70E9483010C94B7
S11300A008050C940000ECE7F0E010828081806485
S11300B08083808180628083808182608083EAE79C
S11300C0F0E01082808183608083808188608083F7
S11300D0808180688083089580FF04C09BB1946010
S11300E09BB903C09BB19B7F9BB981FF04C09BB1AB
S11300F098609BB903C09BB1977F9BB982FF04C0F2
S11301009BB190619BB903C09BB19F7E9BB983FF58
S113011004C09BB190629BB903C09BB19F7D9BB906
S113012084FF04C09BB190649BB903C09BB19F7BC7
S11301309BB985FF04C09BB190689BB903C09BB178
S11301409F779BB986FF04C095B1916095B903C0B0
S113015095B19E7F95B9882324F485B1826085B9D1
S1130160089585B18D7F85B9089598B19D7F98B91B
S11301700E946C0088B1816088B98FE79EE3019783
S1130180F1F700C0000088B18E7F88B9089587B167
S1130190836087B98AB18C6F8AB984B1836084B96A
S11301A085B18C7F85B98BB183708BB92FEF89EFC3
S11301B090E0215080409040E1F700C0000080E3CF
S11301C00E94B5008FE19EE40197F1F700C00000A2
S11301D080E30E94B5008FE99FE00197F1F700C02A
S11301E0000080E30E94B5008FE99FE00197F1F7DA
S11301F000C0000088E30E94B5008FE891E00197F9
S1130200F1F700C0000080E00E94B5008FE891E0A3
S11302100197F1F700C000008CE00E94B5008FE860
S113022091E00197F1F700C0000086E00E94B5005C
S11302308FE891E00197F1F700C0000081E00E948F
S1130240B5008FE39FE10197F1F700C00000089526
S113025098B1926098B90E946C0088B1816088B9A5
S11302608FE39FE10197F1F700C0000088B18E7F12
S113027088B98FE39FE10197F1F700C0000008956A
S11302800F931F93CF93DF938C01C0E0D0E003C0A2
S11302900E9428012196F801EC0FFD1F8081811135
S11302A0F7CFDF91CF911F910F910895613021F421
S11302B081580E94B5000895623019F481540E9457
S11302C0B5000895F8940E94C7000E949B040E9400
S11302D05300EAE7F0E08081806480837894089595
S11302E081E091E00E94B90482E191E00E94B904A6
S11302F08BE291E00E94B90485E491E00E94B90484
S11303001092000108950E94620161E082E00E945F
S1130310560189E591E00E94400161E087E00E9476
S113032056018DE591E00E94400161E08CE00E945D
S1130330560181E691E00E94400180910D028823DC
S113034009F4B7C062E081E00E94560180902E0259
S113035090902F02A0903002B09031020F2EF4E65C
S11303604F2E512C612C712CF02DC501B401A30129
S113037092010E94CC04C22F20932A0230932B02B4
S113038040932C0250932D020F2EFAE0CF2ED12C45
S1130390E12CF12CF02DA70196010E94CC042093AE
S11303A01602309317024093180250931902C501A4
S11303B0B401A70196010E94CC04609333027093A8
S11303C03402809335029093360280E38C0F0E94AE
S11303D028018EE20E94280180911602805D0E940D
S11303E0280180913302805D0E94280186E50E94E5
S11303F0280162E087E00E94560180901E029090DE
S11304001F02A0902002B0902102C501B40128EE81
S113041033E040E050E00E94CC04C22F209322023B
S1130420309323024093240250932502A3019201A6
S11304300E94CC0420932602309327024093280282
S113044050932902C501B401A30192010E94CC0476
S1130450A70196010E94CC04209312023093130248
S11304604093140250931502C501B401A7019601EB
S11304700E94CC0460931A0270931B0280931C02A6
S113048090931D0280E38C0F0E9428018091260224
S1130490805D0E94280180911202805D0E942801E3
S11304A080911A02805D0E94280110920D02109220
S11304B00C0280910001882309F43FCF0E9470014F
S11304C062E08CE00E94560180910A02CDEC8C9F80
S11304D0812D1124869586958695805D0E9428013C
S11304E080910A028C9FC12D1124C695C695C6958C
S11304F0CC0F9C2F990F990FC90F8C1B805D0E9404
S113050028011BCF4F925F926F927F928F929F929E
S1130510AF92BF92CF92DF92EF92FF9280910B0243
S1130520813009F0C0C080902E0290902F02A090DC
S11305303002B09031020F2EF4E64F2E512C612C74
S1130540712CF02DC501B401A30192010E94CC04C9
S113055020932A0230932B0240932C0250932D02B5
S11305600F2EFAE0CF2ED12CE12CF12CF02DA70187
S113057096010E94CC0420931602309317024093F4
S1130580180250931902C501B401A70196010E94F3
S1130590CC046093330270933402809335029093B9
S11305A0360285E691E00E94B90480912A02805DBA
S11305B00E94B2048EE20E94B20480911602805D11
S11305C00E94B20480913302805D0E94B20486E5E9
S11305D00E94B2048FEA91E00E94B90480901E0246
S11305E090901F02A0902002B0902102C501B40196
S11305F028EE33E040E050E00E94CC042093220235
S1130600309323024093240250932502A3019201C4
S11306100E94CC04209326023093270240932802A0
S113062050932902C501B401A30192010E94CC0494
S1130630A70196010E94CC04209312023093130266
S11306404093140250931502C501B401A701960109
S11306500E94CC0460931A0270931B0280931C02C4
S113066090931D0287E791E00E94B90480912202D1
S1130670805D0E94B20480912602805D0E94B204D3
S113068080911202805D0E94B20480911A02805D02
S11306900E94B2048FEA91E00E94B90481E0809341
S11306A0000110920B02FF90EF90DF90CF90BF906B
S11306B0AF909F908F907F906F905F904F90089530
S11306C0CF93C82F89E891E00E94B904CA3050F052
S11306D08DECC89F812D1124869586958695805D25
S11306E00E94B2049DECC99F912D11249695969574
S11306F09695990F892F880F880F980F8C2F891B37
S1130700805D0E94B20480EB91E00E94B904CF9115
S113071008958B3259F480910A02823320F48F5F5A
S113072080930A0210C010920A020DC08D3259F44F
S113073080910A02882321F0815080930A0203C029
S113074082E380930A0280910A020E94600381E09E
S11307508093000108951F920F920FB60F921124F7
S11307602F933F934F935F936F937F938F939F93B5
S1130770AF93BF93EF93FF938091C60080933202AF
S11307800E94B2048FEA91E00E94B90480910B02A6
S1130790811120C080913202813351F481E0809331
S11307A00B0284E991E00E94B9040E9482021AC0FB
S11307B0823341F482E080930B0283EB91E00E9448
S11307C0B90410C08FED91E00E94B90481E08093D8
S11307D0000108C0823031F4809132020E94890302
S11307E010920B02FF91EF91BF91AF919F918F9166
S11307F07F916F915F914F913F912F910F900FBE19
S11308000F901F9018951F920F920FB60F921124FC
S11308102F933F934F935F936F937F938F939F9304
S1130820AF93BF93CF93DF93EF93FF9380917C00BB
S1130830837090E0A0E0B0E080930E0290930F02EA
S1130840A0931002B09311024091790050E060E04F
S113085070E04093370250933802609339027093EA
S11308603A0282309105A105B10529F00397A1054B
S1130870B10521F145C0CCE7D0E08881807F888331
S113088020913702309138024091390250913A0256
S1130890A4EFB1E00E94EE042FEF30E040E050E01E
S11308A00E94CC0420932E0230932F0240933002F6
S11308B05093310288818360888322C0CCE7D0E0E2
S11308C08881807F8883209137023091380240915B
S11308D0390250913A02AFEFB3E00E94EE042FEFD9
S11308E030E040E050E00E94CC0420931E0230939C
S11308F01F024093200250932102888182608883E2
S113090081E080930D02EAE7F0E0808180648083D7
S1130910FF91EF91DF91CF91BF91AF919F918F9113
S11309207F916F915F914F913F912F910F900FBEE7
S11309300F901F9018958AB182608AB98AB18E7F10
S11309408AB91092C000E1ECF0E08081886980836C
S113095086E08093C20087E690E09093C500809380
S1130960C40008959091C00095FFFCCF8093C60009
S113097008950F931F93CF938C01C0E003C00E948E
S1130980B204CF5FF801EC0FF11D80818111F7CF24
S1130990CF911F910F910895A1E21A2EAA1BBB1BA0
S11309A0FD010DC0AA1FBB1FEE1FFF1FA217B30737
S11309B0E407F50720F0A21BB30BE40BF50B661F4D
S11309C0771F881F991F1A9469F760957095809511
S11309D090959B01AC01BD01CF0108950E94F904DB
S11309E0A59F900DB49F900DA49F800D911D11247F
S11309F00895A29FB001B39FC001A39F700D811DF4
S1130A001124911DB29F700D811D1124911D089513
S1070A10F894FFCF84
S1130A14010D0A2A2A2A204D454E55202A2A2A0D38
S1130A240A00313A204C65657220506F74656E6318
S1130A3469F36D6574726F730D0A00323A20496E5E
S1130A446372656D656E74617220636F6E74616444
S1130A546F720D0A0053656C656363696F6E65207C
S1130A646F706369F36E3A200053313A0053323A9B
S1130A740053333A00506F74656E6369F36D6574A3
S1130A84726F20313A2000506F74656E6369F36DA0
S1130A946574726F20323A2000436F6E7461646F20
S1130AA4723A20000D0A4C6579656E646F20706F8C
S1130AB474656E6369F36D6574726F732E2E2E20E4
S1130AC40D0A000D0A496E6372656D656E746520C6
S1130AD4282B29206F2064656372656D656E7465C7
S1130AE420282D2920636F6E7461646F7220000DB9
S1130AF40A4F706369F36E206E6F2076616C6964CB
S1130B04612E20496E74656E7465206E7565766118
S10D0B146D656E74652E0D0A000075
S9030000FC
