:100000000C9434000C9451000C9451000C94510049
:100010000C9404080C9451000C9451000C94510061
:100020000C9451000C9451000C9451000C9451000C
:100030000C9451000C9451000C9451000C945100FC
:100040000C9451000C9451000C94D4070C94510062
:100050000C9451000C9451000C9451000C945100DC
:100060000C9451000C94510011241FBECFEFD8E026
:10007000DEBFCDBF11E0A0E0B1E0ECE9F5E102C0E8
:1000800005900D92AA33B107D9F721E0AAE3B1E0B8
:1000900001C01D92A739B207E1F70E9466030C94D4
:1000A000CC0A0C9400000F931F93CF938B019C01FB
:1000B000C42F87B18F7C87B9443079F018F4413070
:1000C00031F023C0403191F04034C9F01EC0E9EB5B
:1000D000F0E080818C7F80831EC0E9EBF0E08081BE
:1000E0008D7F808380818160808315C0E9EBF0E0A3
:1000F00080818E7F80838081826080830CC0E9EB69
:10010000F0E080818360808306C0E9EBF0E08081CD
:100110008C7F8083C1E060E074E284EF90E0A9010D
:1001200098010E949B0ACA01B901605171098109B5
:1001300091094C2F50E09A01220F331F032E000C1F
:10014000440B550B0E949B0A2093B800ECEBF0E0A7
:10015000808184608083CF911F910F91089584EAFC
:100160008093BC008091BC008823E4F79091B90093
:10017000987F81E0983009F080E0089584EA8093C8
:10018000BC008091BC008823E4F79091B900987F6F
:1001900081E0903109F080E0089584E98093BC000B
:1001A0008091BC0084FDFCCF08958093BB0084E85F
:1001B0008093BC008091BC008823E4F78091B90053
:1001C000887F883121F0883229F090E0089581E01D
:1001D00090E0089581E090E00895FC01662321F00D
:1001E00084EC8093BC0003C084E88093BC009091B1
:1001F000BC009923E4F79091B900987F662311F031
:10020000903551F4611102C0983549F48091BB00DA
:10021000808381E090E0089580E090E0089580E0A0
:1002200090E00895CF93DF93D82FC62F0E94AF00A0
:1002300082E50E94D5008D2F80680E94D5008C2F0A
:100240000E94D5000E94CD00DF91CF9108951F93A9
:10025000CF93DF9300D0CDB7DEB7182F0E94AF0049
:1002600082E50E94D500812F80680E94D5000E94FF
:10027000BE0083E50E94D50061E0CE0101960E9498
:10028000ED0060E0CE0102960E94ED000E94CD00DC
:100290008A8190E0982F88272981822B0F900F90D8
:1002A000DF91CF911F91089561E080E00E941201DB
:1002B0008FED9EE20197F1F700C0000063E080E05F
:1002C0000E94120166ED81E00E9412019FEF21EE73
:1002D00084E0915020408040E1F700C00000089584
:1002E00084E10E942701089586E10E942701089574
:1002F00088E10E94270108958AE10E94270108955C
:100300009BB193709BB99BB1282F30E0220F331F14
:10031000220F331F292B2BB995B19C7F95B995B12D
:100320008295869586958370892B85B9089595B1B8
:100330009B7F95B995B1977F95B90E9480018AE11D
:100340008A95F1F700C085B1806185B99AE19A95E7
:10035000F1F700C085B18F7E85B98AE08A95F1F703
:1003600000C087EC90E00197F1F700C0000008950D
:100370008AB18C6F8AB98BB183708BB984B18F616C
:1003800084B985B1807E85B92FEF89EF90E0215047
:1003900080409040E1F700C0000080E30E94970198
:1003A0008FE19EE40197F1F700C0000080E30E9416
:1003B00097018FE193E00197F1F700C0000080E31F
:1003C0000E9497018FE193E00197F1F700C00000D0
:1003D00088E30E94970188E00E9497018CE00E94C8
:1003E000970186E00E94970181E00E9497018FE3C8
:1003F0009FE10197F1F700C00000089595B1946066
:1004000095B995B1977F95B90E9480018AE18A9547
:10041000F1F700C085B1806185B99AE19A95F1F74D
:1004200000C085B18F7E85B98AE08A95F1F700C05A
:1004300087EC90E00197F1F700C0000008950F935A
:100440001F93CF93DF938C01C0E0D0E003C00E94E4
:10045000FE012196F801EC0FFD1F80818111F7CF7D
:10046000DF91CF911F910F910895613021F4815850
:100470000E9497010895623019F481540E949701F7
:1004800008950E94B8010E94210884B1806284B955
:1004900085B18F7D85B987B18B7F87B988B184603D
:1004A00088B987B1826087B985B18F7D85B941E010
:1004B00060EA76E881E090E00E9453000E945401D7
:1004C000E8E6F0E0808182608083ECE6F0E0808105
:1004D0008460808308953F924F925F926F927F92E3
:1004E0008F929F92AF92BF92CF92DF92EF92FF9244
:1004F0000F931F93CF93DF9361E081E00E94350259
:1005000081E091E00E941F0262E081E00E943502DA
:100510004090490150904A0160904B0170904C010D
:100520000F2EF4E68F2E912CA12CB12CF02DC301AF
:10053000B201A50194010E949B0AC22F2093600181
:100540003093610140936201509363010F2EFAE0F2
:10055000CF2ED12CE12CF12CF02DA70196010E9479
:100560009B0A2093450130934601409347015093E5
:100570004801C301B201A70196010E949B0A609342
:10058000740170937501809376019093770180E3F5
:100590008C0F0E94FE0105E411E0F8018081805D6E
:1005A0000E94FE01C4E7D1E08881805D0E94FE01C7
:1005B00081E191E00E941F0262E087E00E94350223
:1005C00040906401509065016090660170906701F1
:1005D000C301B20128EE33E040E050E00E949B0AE4
:1005E000322E2093930130939401409395015093C0
:1005F0009601A50194010E949B0A2093600130930B
:1006000061014093620150936301C301B201A501EE
:1006100094010E949B0AA70196010E949B0A2093C5
:100620004501309346014093470150934801C3016F
:10063000B201A70196010E949B0A60937401709316
:100640007501809376019093770180E3830D0E947A
:10065000FE0180916001805D0E94FE01F8018081B1
:10066000805D0E94FE018881805D0E94FE0187E618
:100670000E94FE0162E08DE00E94350280917301CC
:10068000813029F485E191E00E941F020DC0823083
:1006900029F489E191E00E941F0206C0833021F411
:1006A0008DE191E00E941F02DF91CF911F910F9188
:1006B000FF90EF90DF90CF90BF90AF909F908F9082
:1006C0007F906F905F904F903F9008958F929F9290
:1006D000AF92BF92CF92DF92EF92FF920F931F9350
:1006E000CF93DF930E944102789485B1806285B9EF
:1006F00080914201882321F0813009F44FC3F5CF66
:1007000080916C01813039F48093420188B18D7FF2
:1007100088B910926C0180910001823009F4C7C041
:10072000833009F49FC1813009F02CC30E94AF00CF
:10073000882309F42CC480E60E94D500892B19F483
:100740000E94CD0024C482E50E94D5000E94BE0014
:10075000811103C00E94CD001AC481E60E94D50019
:10076000892B19F40E94CD0012C460E081E491E06D
:100770000E94ED000E94CD0085B18F7D85B98091EA
:10078000410190E0A0E0B0E08093490190934A01DC
:10079000A0934B01B0934C01AC01BD0145505109F0
:1007A000610971094732510561057105B0F481E0B5
:1007B000809344010E94AF00882309F4E8C380E6D7
:1007C0000E94D500892B19F40E94CD00E0C38CE46F
:1007D0000E94D5000E94CD0066C08C329105A10513
:1007E000B105A8F0109244010E94AF00882309F4DB
:1007F000CEC380E60E94D500892B19F40E94CD005B
:10080000C6C383E50E94D5000E94CD004CC0AC0158
:10081000BD0143505109610971094330510561051A
:10082000710590F461E271E00E9471088AE00E9413
:100830003A088091440165E271E090E00E947108FD
:100840008AE00E943A082FC0AC01BD014351510912
:1008500061097109433051056105710540F461E298
:1008600071E00E9471088AE00E943A081CC0AC0145
:10087000BD014852510961097109443051056105B2
:10088000710588F461E271E00E9471088AE00E94BB
:100890003A088091440165E271E090E00E9471089D
:1008A0008AE00E943A0882E0809300016BC20E94B5
:1008B000AF00882309F46BC380E80E94D500892B20
:1008C00019F40E94CD0063C382E50E94D5000E9406
:1008D000BE00811103C00E94CD0059C381E80E946F
:1008E000D500892B19F40E94CD0051C361E08FE33C
:1008F00091E00E94ED0060E08DE391E00E94ED0048
:100900000E94CD0085B18F7D85B920913F01D22F06
:1009100080E0C82F80913D0190913E018C2B9D2B52
:10092000AC0160E070E04093640150936501609316
:100930006601709367014E31510561057105B0F094
:1009400083E0809343010E94AF00882309F41FC312
:1009500080E80E94D500892B19F40E94CD0017C3AE
:1009600084E50E94D5000E94CD0078C08A019B01D9
:1009700005501109210931090931110521053105F8
:10098000B0F481E0809343010E94AF00882309F412
:10099000FEC280E80E94D500892B19F40E94CD0088
:1009A000F6C281E40E94D5000E94CD0057C08A01A2
:1009B0009B01065011092109310909311105210551
:1009C000310520F082E08093430148C04632510552
:1009D0006105710591F469E271E00E94D7088AE02F
:1009E0000E943A08809143016DE271E090E00E941C
:1009F00071088AE00E943A0831C04C315105610506
:100A0000710591F469E271E00E94D7088AE00E94C2
:100A10003A08809143016DE271E090E00E94710814
:100A20008AE00E943A081AC04150510961097109CF
:100A3000443051056105710588F469E271E00E9456
:100A4000D7088AE00E943A08809143016DE271E084
:100A500090E00E9471088AE00E943A0883E0809347
:100A6000000190C10E94700190936E0180936D010E
:100A70000E94740190935F0180935E010E9478014F
:100A800090935B0180935A010E947C018C019093AA
:100A90004E0180934D01E0906D01F0906E01E114E4
:100AA000F10409F445C060915E0170915F0180E03E
:100AB00090E00E94E4094B015C01B70180E090E006
:100AC0000E94E4096B017C019B01AC01C501B401EA
:100AD0000E947209609356017093570180935801E8
:100AE0009093590160915A0170915B0180E090E010
:100AF0000E94E409A70196010E94720960936801AF
:100B00007093690180936A0190936B01B80180E052
:100B100090E00E94E409A70196010E947209609387
:100B2000500170935101809352019093530118C06A
:100B300010925601109257011092580110925901CB
:100B4000109268011092690110926A0110926B0173
:100B500010925001109251011092520110925301C3
:100B600060915601709157018091580190915901FF
:100B700026E636E646EE5EE30E94960A18160CF06C
:100B800048C0609168017091690180916A019091FB
:100B90006B012AE939E949E95EE30E946D0988237E
:100BA000C4F5609150017091510180915201909172
:100BB00053012AE939E949E95EE30E946D09882376
:100BC00044F581E0809373010E94AF00882309F40B
:100BD000DEC180E80E94D500892B19F40E94CD0067
:100BE000D6C189E50E94D5000E94CD008091730195
:100BF00061E371E090E00E9471088AE00E943A0887
:100C000065E371E08EE690E00E9471088AE00E9440
:100C10003A08609168017091690180916A01909130
:100C20006B0126E636E646EE5EE30E94960A18164B
:100C30000CF03FC0609156017091570180915801AE
:100C40009091590123E333E343EB5EE30E946D0986
:100C500088237CF56091500170915101809152017F
:100C60009091530123E333E343EB5EE30E946D096C
:100C70008823FCF482E0809373010E94AF008823F4
:100C800009F485C180E80E94D500892B19F40E94DF
:100C9000CD007DC182E40E94D5000E94CD008091EC
:100CA000730161E371E090E00E9471088AE00E94A4
:100CB0003A086091500170915101809152019091D8
:100CC000530123E333E343EB5EE30E94960A1816D5
:100CD0000CF048C060915601709157018091580105
:100CE000909159012AE939E949E95EE30E946D09C9
:100CF0008823C4F5609168017091690180916A014F
:100D000090916B0126E636E646EE5EE30E946D09A1
:100D1000882344F583E0809373010E94AF00882309
:100D200009F435C180E80E94D500892B19F40E948E
:100D3000CD002DC182E40E94D5000E94CD0080919B
:100D4000730161E371E090E00E9471088AE00E9403
:100D50003A0865E371E08AEA90E00E9471088AE04F
:100D60000E943A0880913C0190E0A0E0B0E08093BE
:100D70006F0190937001A0937101B093720181E0B3
:100D8000809300010E946B029FEF20E782E0915068
:100D900020408040E1F700C00000A7CC80916C01AA
:100DA000813041F41092420188B1826088B910927A
:100DB0006C019BCC80913A01813009F096CC109265
:100DC0003A01809179018D3409F042C090917A0105
:100DD0009434F1F590917B019A33D1F58CE791E051
:100DE0000E94540880939101813099F40E94AF00D1
:100DF000882309F4CCC080E60E94D500892B19F421
:100E00000E94CD00C4C08CE40E94D5000E94CD0099
:100E100014C0811112C00E94AF00882309F4B7C02A
:100E200080E60E94D500892B19F40E94CD00AFC046
:100E300083E50E94D5000E94CD008091910165E27A
:100E400071E090E00E9471088AE00E943A084DCC5F
:100E5000833509F042C090917A019635F1F5909171
:100E60007B019A33D1F58CE791E00E94540880937E
:100E700092018A3A99F40E94AF00882309F487C04E
:100E800080E80E94D500892B19F40E94CD007FC014
:100E900082E40E94D5000E94CD0014C0883791F4EE
:100EA0000E94AF00882309F472C080E80E94D50038
:100EB000892B19F40E94CD006AC089E50E94D500F3
:100EC0000E94CD008091920165E371E090E00E9464
:100ED00071088AE00E943A0808CC833509F005CCF5
:100EE00080917A01843509F000CC80917B018A33AE
:100EF00009F0FBCB8CE791E00E94540880934F01EE
:100F0000813099F40E94AF00882309F440C080E842
:100F10000E94D500892B19F40E94CD0038C081E4CD
:100F20000E94D5000E94CD0027C0823091F40E941B
:100F3000AF00882361F180E80E94D500892B19F465
:100F40000E94CD0024C082E50E94D5000E94CD0001
:100F500013C0833089F40E94AF008823C1F080E879
:100F60000E94D500892B19F40E94CD0010C084E5A1
:100F70000E94D5000E94CD0080914F016DE271E08A
:100F800090E00E9471088AE00E943A08AECBDF919F
:100F9000CF911F910F91FF90EF90DF90CF90BF9076
:100FA000AF909F908F9008951F920F920FB60F925F
:100FB00011248F939F93EF93FF938091C6008093AA
:100FC00078018A3061F4E0913B01F0E0E758FE4F90
:100FD000108281E080933A0110923B010CC0E091B5
:100FE0003B01E33140F491E09E0F90933B01F0E030
:100FF000E758FE4F8083FF91EF919F918F910F9063
:101000000FBE0F901F9018951F920F920FB60F9260
:1010100011248F939F9386B1847080935C0190918B
:10102000550192FF05C0811103C091E090936C01BE
:10103000809355019F918F910F900FBE0F901F903D
:1010400018958AB182608AB98AB18E7F8AB9109266
:10105000C000E1ECF0E0808188698083E2ECF0E0A0
:1010600080818660808387E690E09093C5008093BE
:10107000C40008959091C00095FFFCCF8093C600F6
:1010800008950F931F93CF938C01C0E003C00E947B
:101090003A08CF5FF801EC0FF11D80818111F7CF85
:1010A000CF911F910F910895FC0120E030E012C014
:1010B000A901440F551F220F331F220F331F220F88
:1010C000331F420F531F292F30E020533109240FC3
:1010D000351F3196908180ED890F8A3048F3822F39
:1010E0000895CF92DF92EF92FF920F931F93CF93C9
:1010F000DF93AC018B019C01ADECBCEC0E94BD0AFE
:10110000EC01D695C795D695C795D695C795CE01CE
:10111000880F991FCC0FDD1FCC0FDD1FCC0FDD1FFB
:10112000C80FD91FCA018C1B9D0BEC01FA01F69563
:10113000E795F695E7959F01ABE7B4E10E94BD0AFC
:101140009C013695279564E6629FC001639F900DD0
:1011500011249A01281B390BADECBCEC0E94BD0A8E
:101160007C01F694E794F694E794F694E7949F0153
:10117000ABE7B4E10E94BD0A6C01D694C794C801E4
:101180000E94410880E38C0D0E943A0880E38E0D96
:101190000E943A088C2F805D0E943A08DF91CF911F
:1011A0001F910F91FF90EF90DF90CF900895CF9215
:1011B000DF92EF92FF920F931F93CF93DF93FC0187
:1011C000AB019C01ADECBCEC0E94BD0AEC01D695D4
:1011D000C795D695C795D695C795CE01880F991F07
:1011E000CC0FDD1FCC0FDD1FCC0FDD1FC80FD91FAB
:1011F000CF018C1B9D0BEC013695279536952795D5
:10120000ABE7B4E10E94BD0A9C013695279564E6E0
:10121000629FC001639F900D11249F01281B390B11
:10122000ADECBCEC0E94BD0A7C01F694E794F69408
:10123000E794F694E7948F01169507951695079510
:10124000169507959801A5ECB0E20E94BD0A92950B
:1012500082958F7089279F70892768EE73E0869F3B
:101260009001879F300D969F300D1124CF01821B76
:10127000930B9C013695279536952795ABE7B4E1FE
:101280000E94BD0A6C01D694C7949801A5ECB0E207
:101290000E94BD0A8C01129502950F7001271F70E4
:1012A0000127CA010E94410880E3800F0E943A088A
:1012B00080E38C0D0E943A0880E38E0D0E943A086C
:1012C0008C2F805D0E943A08DF91CF911F910F9182
:1012D000FF90EF90DF90CF9008950E94210A08F4CC
:1012E00081E008950E9486090C945C0A0E94550AC8
:1012F00058F00E944E0A40F029F45F3F29F00C9408
:10130000450A51110C94900A0C944B0A0E946D0AE4
:1013100068F39923B1F3552391F3951B550BBB2724
:10132000AA2762177307840738F09F5F5F4F220F69
:10133000331F441FAA1FA9F335D00E2E3AF0E0E860
:1013400032D091505040E695001CCAF72BD0FE2FAA
:1013500029D0660F771F881FBB1F2617370748073E
:10136000AB07B0E809F0BB0B802DBF01FF279358F6
:101370005F4F3AF09E3F510578F00C94450A0C946B
:10138000900A5F3FE4F3983ED4F38695779567958E
:10139000B795F7959F5FC9F7880F911D969587952B
:1013A00097F90895E1E0660F771F881FBB1F62174A
:1013B00073078407BA0720F0621B730B840BBA0B08
:1013C000EE1F88F7E0950895E89409C097FB3EF476
:1013D00090958095709561957F4F8F4F9F4F992382
:1013E000A9F0F92F96E9BB279395F6958795779500
:1013F0006795B795F111F8CFFAF4BB0F11F460FFC0
:101400001BC06F5F7F4F8F4F9F4F16C0882311F017
:1014100096E911C0772321F09EE8872F762F05C02B
:10142000662371F096E8862F70E060E02AF09A95C6
:10143000660F771F881FDAF7880F9695879597F9BB
:101440000895990F0008550FAA0BE0E8FEEF161655
:101450001706E807F907C0F012161306E407F507A8
:1014600098F0621B730B840B950B39F40A2661F01C
:10147000232B242B252B21F408950A2609F4A140BF
:10148000A6958FEF811D811D089597F99F6780E8CC
:1014900070E060E008959FEF80EC089500240A94C6
:1014A0001616170618060906089500240A9412163F
:1014B0001306140605060895092E0394000C11F472
:1014C000882352F0BB0F40F4BF2B11F460FF04C01F
:1014D0006F5F7F4F8F4F9F4F089557FD9058440F78
:1014E000551F59F05F3F71F04795880F97FB991F83
:1014F00061F09F3F79F08795089512161306140640
:10150000551FF2CF4695F1DF08C0161617061806CC
:10151000991FF1CF86957105610508940895E894A7
:10152000BB2766277727CB0197F908950E94210AE8
:1015300008F48FEF0895A1E21A2EAA1BBB1BFD0130
:101540000DC0AA1FBB1FEE1FFF1FA217B307E407A2
:10155000F50720F0A21BB30BE40BF50B661F771FFA
:10156000881F991F1A9469F76095709580959095DA
:101570009B01AC01BD01CF010895A29FB001B39FB3
:10158000C001A39F700D811D1124911DB29F700D8C
:0C159000811D1124911D0895F894FFCFD7
:10159C000153313A20202053323A20202053333A41
:1015AC0000636D20007265640067726500626C7583
:1015BC000044493A004D443A0050533A0053543ACF
:0A15CC0000434C3A0053563A000069
:00000001FF
