:100000000C9434000C9446000C9446000C9446006A
:100010000C9446000C9446000C9446000C94460048
:100020000C9446000C9446000C9446000C94460038
:100030000C9446000C9446000C9446000C94460028
:100040000C9446000C9446000C9446000C94460018
:100050000C9446000C9406010C9446000C94460047
:100060000C9419010C94460011241FBECFEFD8E068
:10007000DEBFCDBF21E0A0E0B1E001C01D92A830FD
:10008000B207E1F70E94AA000C9404030C9400004C
:1000900097B19F7C97B9880F8093BA0085E48093CD
:1000A000BC0008958BB184608BB985E38A95F1F724
:1000B00000008BB18B7F8BB90895FC0140E355E7BD
:1000C00060E070E005C0415051096109710989F192
:1000D00099B1292F287093FDF6CF05C041505109E1
:1000E0006109710939F199B1892F887093FFF6CFB1
:1000F000109285001092840082E08093810040E39A
:1001000055E760E070E009C041505109610971098B
:1001100021F410928100822F08954B99F5CF10920F
:10012000810080918400909185009183808381E09B
:10013000089580E008958AB184618AB98AB1877F81
:100140008AB910928000109281001092850010925E
:10015000840008950E949B008AB180618AB98BB1A6
:100160008B7E8BB98BB1877F8BB984B1806284B968
:1001700085B18F7D85B980E30E944800789485B170
:10018000806285B985B18F7D85B90E94520086E075
:1001900091E00E945D008823D1F06091060170918A
:1001A000070180E090E00E94090220E030E040E09A
:1001B0005FE30E94970223E333E349E652E40E949F
:1001C00068010E94DA01709301016093000180913F
:1001D0000301823531F483B1806283B91092030147
:1001E000CECF809103018C3431F48BB180618BB917
:1001F00010920301C4CF80910301833509F0BFCF72
:100200008BB18F7E8BB910920301B9CF1F920F92E1
:100210000FB60F9211248F9380917900809304017F
:1002200081E0809302018F910F900FBE0F901F907D
:1002300018951F920F920FB60F9211248F93EF9380
:10024000FF938091B9008C7F80930501803A89F1FA
:1002500058F48037A1F018F4803689F02EC0803829
:1002600091F0803981F029C0883BA9F018F4883AD0
:1002700091F023C0803CB9F0883CA9F01EC085EC09
:100280008093BC001DC08091BB008093030185EC6E
:100290008093BC0015C0809100018093BB0085EC69
:1002A0008093BC000DC0ECEBF0E0108285E480830D
:1002B00007C085EC8093BC0003C085EC8093BC0034
:1002C000FF91EF918F910F900FBE0F901F90189597
:1002D0000E947C010C945D020E94560258F00E941C
:1002E0004F0240F029F45F3F29F00C94460251116F
:1002F0000C9491020C944C020E946E0268F39923B4
:10030000B1F3552391F3951B550BBB27AA27621711
:100310007307840738F09F5F5F4F220F331F441F1E
:10032000AA1FA9F335D00E2E3AF0E0E832D0915052
:100330005040E695001CCAF72BD0FE2F29D0660F3F
:10034000771F881FBB1F261737074807AB07B0E882
:1003500009F0BB0B802DBF01FF2793585F4F3AF088
:100360009E3F510578F00C9446020C9491025F3F39
:10037000E4F3983ED4F3869577956795B795F7950E
:100380009F5FC9F7880F911D9695879597F90895F6
:10039000E1E0660F771F881FBB1F62177307840792
:1003A000BA0720F0621B730B840BBA0BEE1F88F7A1
:1003B000E09508950E94760288F09F5798F0B92F33
:1003C0009927B751B0F0E1F0660F771F881F991F8A
:1003D0001AF0BA95C9F714C0B13091F00E9490029A
:1003E000B1E008950C949002672F782F8827B85FAA
:1003F00039F0B93FCCF3869577956795B395D9F7E2
:100400003EF490958095709561957F4F8F4F9F4FEB
:100410000895E89409C097FB3EF4909580957095F7
:1004200061957F4F8F4F9F4F9923A9F0F92F96E940
:10043000BB279395F695879577956795B795F111B5
:10044000F8CFFAF4BB0F11F460FF1BC06F5F7F4F52
:100450008F4F9F4F16C0882311F096E911C0772364
:1004600021F09EE8872F762F05C0662371F096E86D
:10047000862F70E060E02AF09A95660F771F881F3C
:10048000DAF7880F9695879597F9089597F99F67FA
:1004900080E870E060E008959FEF80EC089500240C
:1004A0000A941616170618060906089500240A94D9
:1004B00012161306140605060895092E0394000C5F
:1004C00011F4882352F0BB0F40F4BF2B11F460FFEE
:1004D00004C06F5F7F4F8F4F9F4F089557FD905817
:1004E000440F551F59F05F3F71F04795880F97FBF8
:1004F000991F61F09F3F79F08795089512161306B2
:100500001406551FF2CF4695F1DF08C016161706E0
:100510001806991FF1CF8695710561050894089515
:10052000E894BB2766277727CB0197F908950E94A7
:10053000AA020C945D020E944F0238F00E945602FB
:1005400020F0952311F00C9446020C944C021124D7
:100550000C9491020E946E0270F3959FC1F3950F67
:1005600050E0551F629FF001729FBB27F00DB11D37
:10057000639FAA27F00DB11DAA1F649F6627B00DC7
:10058000A11D661F829F2227B00DA11D621F739FB0
:10059000B00DA11D621F839FA00D611D221F749FBE
:1005A0003327A00D611D231F849F600D211D822F05
:1005B000762F6A2F11249F5750409AF0F1F088232C
:1005C0004AF0EE0FFF1FBB1F661F771F881F915059
:1005D0005040A9F79E3F510580F00C9446020C94C0
:1005E00091025F3FE4F3983ED4F386957795679543
:1005F000B795F795E7959F5FC1F7FE2B880F911D83
:0C0600009695879597F90895F894FFCF20
:00000001FF
