S00D00004C616230332E73726563A5
S11300000C943B000C9458000C9458000C94580029
S11300100C9458000C9458000C9458000C945800FC
S11300200C9458000C9458000C9458000C945800EC
S11300300C9458000C9458000C9458000C945800DC
S11300400C9458000C9458000C940A020C94580018
S11300500C9458000C9458000C9458000C945800BC
S11300600C9458000C9458009B02A202A902B302FB
S1130070BD02C702D10211241FBECFEFD8E0DEBFFC
S1130080CDBF11E0A0E0B1E0E0EAF6E002C00590E7
S11300900D92AC3DB107D9F721E0ACEDB1E001C060
S11300A01D92A13FB207E1F70E94C2010C944E03D6
S11300B00C940000F89487B1806287B98AB18C6F80
S11300C08AB984B1836084B988B18F7D88B985B1D8
S11300D08C7F85B98BB183708BB920E040E060E000
S11300E083E50E9483020E94EF027894089581E0E0
S11300F091E00E940D0382E191E00E940D038BE2E6
S113010091E00E940D0380E491E00E940D0310929F
S1130110000108951F93CF93DF938091DF01813015
S113012009F0C6C088B18F7D88B983E60E94E802D1
S11301302FEF80E792E0215080409040E1F700C02B
S1130140000080E00E94E8022FEF80E792E0215057
S113015080409040E1F700C000000E94EA028093D2
S1130160E10183E60E94E8022FEF80E792E021504C
S113017080409040E1F700C0000080E00E94E80267
S11301802FEF80E792E0215080409040E1F700C0DB
S113019000000E94EA028093E00188B1806288B97D
S11301A08091E101D9E28D9F912D112492959F7048
S11301B09093E50114E6282F919F20191124CDEC8A
S11301C02C9F912D11249695969596959093E201E6
S11301D08C9F912D1124969596959695990F292F7C
S11301E0220F220F920F891B8093EF0184E591E087
S11301F00E940D038091E501805D0E9406038091B9
S1130200E201805D0E9406038091EF01805D0E94FF
S1130210060383E991E00E940D032091E001822FFF
S113022090E068EE73E00E94200364E670E00E94B0
S113023020036093E4012D9FD12D1124D295DF700A
S1130240822FD19F801911248C9F812D1124869592
S1130250869586958093EC012C9FC12D1124C6951B
S1130260C695C695CC0F8C2F880F880FC80F2C1BF2
S11302702093ED0186E691E00E940D038091E40154
S1130280805D0E9406038091EC01805D0E9406035C
S11302908091ED01805D0E94060383E991E00E9454
S11302A00D0381E0809300011092DF011092E301BD
S11302B0DF91CF911F910895FC0120E030E012C03E
S11302C0A901440F551F220F331F220F331F220F82
S11302D0331F420F531F292F30E020533109240FBD
S11302E0351F3196908180ED890F8A3048F3822F33
S11302F00895882324F495B1926095B903C095B10B
S11303009D7F95B986FF04C095B1916095B903C0EE
S113031095B19E7F95B985FF04C09BB190689BB948
S113032003C09BB19F779BB984FF04C09BB19064C9
S11303309BB903C09BB19F7B9BB983FF04C09BB156
S113034090629BB903C09BB19F7D9BB982FF04C09F
S11303509BB190619BB903C09BB19F7E9BB981FF08
S113036004C09BB198609BB903C09BB1977F9BB9B4
S113037080FF04C08BB184608BB908958BB18B7FEF
S11303808BB908950E945A008091000181110E9446
S113039077008091DE0181110E948A008091DD0145
S11303A0882371F186EE91E00E945C018093DC0168
S11303B00E94790188B18F7D88B98CE40E94E8029B
S11303C02FEF80E792E0215080409040E1F700C099
S11303D000008091DC010E94E8022FEF80E792E0A8
S11303E0215080409040E1F700C0000088B1806255
S11303F088B91092DD011092DF0181E08093000141
S11304002FEF84E39CE0215080409040E1F700C04E
S11304100000BACF1F920F920FB60F9211242F93A0
S11304203F934F935F936F937F938F939F93AF9378
S1130430BF93CF93EF93FF938091C6008093EE0117
S11304400E94060383E991E00E940D038091EE016E
S11304508A3061F4E091F001F0E0EA51FE4F10823D
S113046081E08093E3011092F0010CC0E091F0016F
S1130470E53040F491E09E0F9093F001F0E0EA51F2
S1130480FE4F80838091DF01811124C09091E301AC
S1130490913001F58091E601813351F4C1E0C093BC
S11304A0DF0188E791E00E940D03C093DE0119C0CB
S11304B0823341F482E08093DF0187E991E00E9476
S11304C00D030FC081EB91E00E940D0381E0809346
S11304D0000107C0823029F41092E30181E0809387
S11304E0DD01FF91EF91CF91BF91AF919F918F91DA
S11304F07F916F915F914F913F912F910F900FBE1C
S11305000F901F901895E82F84FF52C084B18C621D
S113051084B984B18F7E84B98CB580618CBDE77059
S11305208E2F90E08730910508F04BC0FC01EC5C05
S1130530FF4F0C9434038CB58C7F8CBD8DB58160DA
S11305408DBD3FC08CB58C7F8CBD8DB58E7F8DBD30
S113055038C08CB581608CBD8CB58D7F8CBD8DB55C
S113056081608DBD2EC08CB581608CBD8CB58D7FB6
S11305708CBD8DB58E7F8DBD24C08CB58E7F8CBD1A
S11305808CB582608CBD8DB581608DBD1AC08CB573
S11305908E7F8CBD8CB582608CBD8DB58E7F8DBDFC
S11305A010C08CB583608CBD8DB58E7F8DBD09C0A8
S11305B084B1806184B984B1837D84B98CB58F7E24
S11305C08CBD8CB5462B242B282B20642CBD089580
S11305D08EBD08950DB407FEFDCF8EB508958AB182
S11305E082608AB98AB18E7F8AB91092C000E1EC28
S11305F0F0E080818869808386E08093C20087E68A
S113060090E09093C5008093C40008959091C00039
S113061095FFFCCF8093C60008950F931F93CF934B
S11306208C01C0E003C00E940603CF5FF801EC0F09
S1130630F11D80818111F7CFCF911F910F91089502
S113064097FB072E16F4009407D077FD09D00E947B
S11306503A0307FC05D03EF4909581959F4F089589
S1130660709561957F4F0895EE0FFF1F0590F491EB
S1130670E02D0994AA1BBB1B51E107C0AA1FBB1F95
S1130680A617B70710F0A61BB70B881F991F5A951A
S1130690A9F780959095BC01CD010895F894FFCFFA
S11306A0010D0A2A2A2A204D454E55202A2A2A0DB0
S11306B00A00313A204C65657220506F74656E6390
S11306C069F36D6574726F730D0A00323A20496ED6
S11306D0677265736172206EFA6D65726F0D0A0040
S11306E053656C656363696F6E65206F706369F34E
S11306F06E3A2000506F74656E6369F36D657472B1
S11307006F20313A2000506F74656E6369F36D6534
S113071074726F20323A20000D0A4C6579656E645C
S11307206F20706F74656E6369F36D6574726F73B7
S11307302E2E2E200D0A000D0A496E677265736510
S1130740206EFA6D65726F206465736561646F2055
S1130750000D0A4F706369F36E206E6F2076616C32
S11307606964612E20496E74656E7465206E7565CA
S10F077076616D656E74652E0D0A000044
S9030000FC
