S00D00004C616230362E73726563A2
S11300000C9434000C9451000C9451000C94AA00EC
S11300100C94C7000C9451000C9451000C945100A2
S11300200C9451000C9451000C9451000C94510008
S11300300C9451000C9451000C9451000C945100F8
S11300400C9451000C9451000C9451000C945100E8
S11300500C9451000C9451000C9451000C945100D8
S11300600C9451000C94510011241FBECFEFD8E022
S1130070DEBFCDBF11E0A0E0B1E0E2E5F2E002C0F6
S113008005900D92A637B107D9F721E0A6E7B1E0B4
S113009001C01D92A837B207E1F70E9473000C94C7
S11300A027010C940000F89484B18C7F84B985B145
S11300B0836085B987B1807F87B988B18F6088B93B
S11300C0E8E6F0E0808183608083EBE6F0E0808105
S11300D083608083ECE6F0E080818F6080830E94FF
S11300E0F600789408950E9453008091760181303F
S11300F0E1F71092760180917701843469F028F455
S11301008134F1F0823409F1F0CF8535A1F08A35DC
S113011069F0893451F705C080E091E00E94140130
S1130120E4CF86E191E00E941401DFCF8EE291E0FA
S11301300E941401DACF82E491E00E941401D5CF29
S113014086E591E00E941401D0CF86E691E00E94FA
S11301501401CBCF1F920F920FB60F9211248F93DD
S1130160189907C081E08093760182E48093770137
S113017008C0199906C081E08093760181E48093D8
S113018077018F910F900FBE0F901F9018951F92BB
S11301900F920FB60F9211248F93309907C081E00C
S11301A08093760184E4809377011AC0319907C063
S11301B081E08093760189E48093770111C03299BC
S11301C007C081E0809376018AE58093770108C0B7
S11301D0339906C081E08093760185E580937701A9
S11301E08F910F900FBE0F901F9018958AB1826067
S11301F08AB98AB18E7F8AB91092C000E1ECF0E02E
S113020080818869808386E08093C20087E690E0DD
S11302109093C5008093C40008959091C00095FF09
S1130220FCCF8093C60008950F931F93CF938C0146
S1130230C0E003C00E940D01CF5FF801EC0FF11D77
S113024080818111F7CFCF911F910F910895F89478
S1050250FFCFDA
S1130252436F6E74726F6C205F323A20446572652C
S11302626368610D0A00436F6E74726F6C205F32B3
S11302723A20497A717569657264610D0A00436FA7
S11302826E74726F6C205F323A204162616A6F0D44
S11302920A00436F6E74726F6C5F323A204172725D
S11302A26962610D0A00436F6E74726F6C205F3273
S11302B23A20410D0A00436F6E74726F6C205F32F4
S10902C23A20420D0A007F
S9030000FC
